{
  "contractName": "Renta",
  "abi": [
    {
      "inputs": [
        {
          "internalType": "uint256",
          "name": "",
          "type": "uint256"
        }
      ],
      "name": "clientes",
      "outputs": [
        {
          "internalType": "address",
          "name": "",
          "type": "address"
        }
      ],
      "stateMutability": "view",
      "type": "function",
      "constant": true
    },
    {
      "inputs": [
        {
          "internalType": "uint256",
          "name": "peliculaID",
          "type": "uint256"
        }
      ],
      "name": "rentar",
      "outputs": [
        {
          "internalType": "uint256",
          "name": "",
          "type": "uint256"
        }
      ],
      "stateMutability": "payable",
      "type": "function",
      "payable": true
    },
    {
      "inputs": [],
      "name": "getClientes",
      "outputs": [
        {
          "internalType": "address[16]",
          "name": "",
          "type": "address[16]"
        }
      ],
      "stateMutability": "view",
      "type": "function",
      "constant": true
    }
  ],
  "bytecode": "0x608060405234801561001057600080fd5b5061043d806100206000396000f3fe6080604052600436106100345760003560e01c8063033b7fa01461003957806371a12969146100645780638964faa0146100a1575b600080fd5b34801561004557600080fd5b5061004e6100d1565b60405161005b919061031c565b60405180910390f35b34801561007057600080fd5b5061008b60048036038101906100869190610238565b610152565b6040516100989190610301565b60405180910390f35b6100bb60048036038101906100b69190610238565b610188565b6040516100c89190610338565b60405180910390f35b6100d9610200565b6000601080602002604051908101604052809291908260108015610148576020028201915b8160009054906101000a900473ffffffffffffffffffffffffffffffffffffffff1673ffffffffffffffffffffffffffffffffffffffff16815260200190600101908083116100fe575b5050505050905090565b6000816010811061016257600080fd5b016000915054906101000a900473ffffffffffffffffffffffffffffffffffffffff1681565b600080821015801561019b5750600f8211155b6101a457600080fd5b33600083601081106101b9576101b86103bc565b5b0160006101000a81548173ffffffffffffffffffffffffffffffffffffffff021916908373ffffffffffffffffffffffffffffffffffffffff160217905550819050919050565b604051806102000160405280601090602082028036833780820191505090505090565b600081359050610232816103f0565b92915050565b60006020828403121561024e5761024d6103eb565b5b600061025c84828501610223565b91505092915050565b6000610271838361027d565b60208301905092915050565b61028681610380565b82525050565b61029581610380565b82525050565b6102a48161035d565b6102ae8184610375565b92506102b982610353565b8060005b838110156102ea5781516102d18782610265565b96506102dc83610368565b9250506001810190506102bd565b505050505050565b6102fb816103b2565b82525050565b6000602082019050610316600083018461028c565b92915050565b600061020082019050610332600083018461029b565b92915050565b600060208201905061034d60008301846102f2565b92915050565b6000819050919050565b600060109050919050565b6000602082019050919050565b600081905092915050565b600061038b82610392565b9050919050565b600073ffffffffffffffffffffffffffffffffffffffff82169050919050565b6000819050919050565b7f4e487b7100000000000000000000000000000000000000000000000000000000600052603260045260246000fd5b600080fd5b6103f9816103b2565b811461040457600080fd5b5056fea2646970667358221220445251ec2a3abb6d34196df48f80c4276a3905c092ef153910a34e49b22e7b1864736f6c63430008060033",
  "immutableReferences": {},
  "source": "// SPDX-License-Identifier: MIT\r\npragma solidity ^0.8.6;\r\n\r\ncontract Renta {\r\naddress[16] public clientes;\r\n\r\nfunction rentar(uint peliculaID) public payable returns (uint) {\r\n  require(peliculaID >= 0 && peliculaID <= 15);\r\n\r\n  clientes[peliculaID] = msg.sender;\r\n\r\n  return peliculaID;\r\n}\r\n\r\nfunction getClientes() public view returns (address[16] memory) {\r\n  return clientes;\r\n}\r\n}",
  "sourcePath": "e:\\Projects\\BlockChain\\TestTruffle\\Israel\\contracts\\Renta.sol",
  "compiler": {
    "name": "solc",
    "version": "0.8.6+commit.11564f7e.Emscripten.clang"
  },
  "schemaVersion": "3.4.13",
  "updatedAt": "2023-06-10T04:25:59.719Z",
  "networkType": "ethereum",
  "devdoc": {
    "kind": "dev",
    "methods": {},
    "version": 1
  },
  "userdoc": {
    "kind": "user",
    "methods": {},
    "version": 1
  }
}